:08000000803102288731FB2F3B
:100CE20086317A2686318631A0268631742E80316D
:100CF20002287E01B801C301CE01CF30400191002C
:100D0200FF30920093010800F10140010D1C8A2E70
:100D12008B2E9E2E1A30F000F830890B8E2EF00B9F
:100D22008E2E003240010D18972E982E9E2EF10124
:100D3200F10A0D1C9D2E9E2E9A2E710808008631F6
:100D420085268631013A031DA72EA82EB42E013026
:100D52004001AB002B08AD0764302D02031CB22EFC
:100D6200B32EB42EAD0140012D08AB00AC012B080F
:100D7200A0002C08A10087313027863108007808AE
:100D820079040319C52EC62EEF2EFD01FD0AD22EBF
:100D92000130F835F90D890BCA2E0130FC007C08B0
:100DA200FD07F91FD52ED62EC92E79087B02031D09
:100DB200DC2E78087A02031CDF2EE02EE42E78085F
:100DC200FA027908FB3B0130F936F80C890BE52E63
:100DD2000130FD02031DEE2EEF2ED62E7B08F90008
:100DE2007A08F8000800F501F60170087104031989
:100DF200FB2EFC2E2B2FF701F70A082F0130F035BE
:100E0200F10D890B002F0130F4007408F707F11F70
:100E12000B2F0C2FFF2E0130F535F60D890B0D2F00
:100E220071087302031D172F70087202031C1A2F18
:100E32001B2F202F7008F2027108F33B751401304A
:100E4200F136F00C890B212F0130F702031D2A2FF6
:100E52002B2F0C2F7608F1007508F00008000A30DD
:100E6200F8000030F90040012108FB002008FA00D8
:100E72008631C026873179084001A4007808A30092
:100E82000A30F8000030F9000A30F0000030F100BA
:100E92002108F3002008F2008631F4268731710818
:100EA200FB007008FA008631C026873179084001BC
:100EB200A6007808A5000A30F8000030F900643076
:100EC200F0000030F1002108F3002008F200863122
:100ED200F42687317108FB007008FA008631C026BB
:100EE200873179084001A8007808A7000A30F80085
:100EF2000030F900E830F0000330F1002108F3007F
:100F02002008F2008631F42687317108FB00700850
:100F1200FA008631C026873179084001AA00780894
:100F2200A9008C120C120030230784000830243DE3
:100F32008038850000088E0007304001A2007D3015
:100F4200890BA12FA20BA12F0A30840088308500C3
:100F5200000840018E008C120C1600302507840018
:100F62000830263D8038850000088E000730400199
:100F7200A2007D30890BBB2FA20BBB2F0A3084004D
:100F820088308500000840018E008C160C1200305B
:100F9200270784000830283D8038850000088E002D
:100FA20007304001A2007D30890BD52FA20BD52F2F
:100FB2000A30840088308500000840018E008C16BB
:100FC2000C1600302907840008302A3D803885003D
:100FD20000088E0007304001A2007D30890BEF2F00
:100FE200A20BEF2F0A3084008830850000084001F0
:100FF2008E0008004001AD0140018631712EC034DF
:10100200F934A434B034993492348234F8348034CC
:041012009034FF34E3
:020000040001F9
:08000000FF3FFF3FFF3FFF3F00
:0A000E00F93FFF3F9F3FFF1FFF3F38
:00000001FF
