:08000000803102288731FB2F3B
:100DB6008631E426863187310A278631DE2E803158
:100DC60002287E01B801C301CE01CF304001910057
:100DD600FF30920093010800F10140010D1CF42E32
:100DE600F52E082F1A30F000F830890BF82EF00B8C
:100DF600F82E003240010D18012F022F082FF101A5
:100E0600F10A0D1C072F082F042F710808008631E0
:100E1600EF268731013A031D112F122F1E2F0130A5
:100E26004001A7002708A90764302902031C1C2FCC
:100E36001D2F1E2FA90140012908A700A801270878
:100E4600A0002808A10087319A2787310800780872
:100E5600790403192F2F302F592FFD01FD0A3C2F3E
:100E66000130F835F90D890B342F0130FC007C0870
:100E7600FD07F91F3F2F402F332F79087B02031DF3
:100E8600462F78087A02031C492F4A2F4E2F7808DE
:100E9600FA027908FB3B0130F936F80C890B4F2F23
:100EA6000130FD02031D582F592F402F7B08F900F2
:100EB6007A08F8000800F501F601700871040319B4
:100EC600652F662F952FF701F70A722F0130F0353F
:100ED600F10D890B6A2F0130F4007408F707F11F32
:100EE600752F762F692F0130F535F60D890B772F83
:100EF60071087302031D812F70087202031C842F70
:100F0600852F8A2F7008F2027108F33B75140130A1
:100F1600F136F00C890B8B2F0130F702031D942F4D
:100F2600952F762F7608F1007508F00008000A3034
:100F3600F8000030F90040012108FB002008FA0003
:100F460087312A27873179084001A4007808A30051
:100F56000A30F8000030F9000A30F0000030F100E5
:100F66002108F3002008F20087315E2787317108D7
:100F7600FB007008FA0087312A278731790840017B
:100F8600A6007808A5008C120C12003023078400F6
:100F96000830243D8038850000088E000730400167
:100FA600A2007D30890BD52FA20BD52F0A308400E5
:100FB60088308500000840018E008C120C16003027
:100FC600250784000830263D8038850000088E00FD
:100FD60007304001A2007D30890BEF2FA20BEF2FC7
:100FE6000A30840088308500000840018E00080021
:100FF6004001A90140018631DB2EC034F934A43406
:10100600B034993492348234F83480349034FF34D6
:020000040001F9
:08000000FF3FFF3FFF3FFF3F00
:0A000E00F93FFF3F9F3FFF1FFF3F38
:00000001FF
